{
  "_format": "hh-sol-artifact-1",
  "contractName": "PaperStore",
  "sourceName": "contracts/PaperStore.sol",
  "abi": [
    {
      "inputs": [
        {
          "internalType": "uint256",
          "name": "index",
          "type": "uint256"
        }
      ],
      "name": "getPaper",
      "outputs": [
        {
          "internalType": "string",
          "name": "",
          "type": "string"
        },
        {
          "internalType": "address",
          "name": "",
          "type": "address"
        },
        {
          "internalType": "uint256",
          "name": "",
          "type": "uint256"
        }
      ],
      "stateMutability": "view",
      "type": "function"
    },
    {
      "inputs": [],
      "name": "getPaperCount",
      "outputs": [
        {
          "internalType": "uint256",
          "name": "",
          "type": "uint256"
        }
      ],
      "stateMutability": "view",
      "type": "function"
    },
    {
      "inputs": [
        {
          "internalType": "uint256",
          "name": "",
          "type": "uint256"
        }
      ],
      "name": "papers",
      "outputs": [
        {
          "internalType": "string",
          "name": "ipfsCid",
          "type": "string"
        },
        {
          "internalType": "address",
          "name": "owner",
          "type": "address"
        },
        {
          "internalType": "uint256",
          "name": "timestamp",
          "type": "uint256"
        }
      ],
      "stateMutability": "view",
      "type": "function"
    },
    {
      "inputs": [
        {
          "internalType": "string",
          "name": "_ipfsCid",
          "type": "string"
        }
      ],
      "name": "submitPaper",
      "outputs": [],
      "stateMutability": "nonpayable",
      "type": "function"
    }
  ],
  "bytecode": "0x608060405234801561001057600080fd5b50610ab1806100206000396000f3fe608060405234801561001057600080fd5b506004361061004c5760003560e01c806307993f04146100515780633d7e97f2146100835780635e775a27146100a1578063de7cc07f146100d3575b600080fd5b61006b600480360381019061006691906104bb565b6100ef565b60405161007a939291906105c8565b60405180910390f35b61008b61027a565b6040516100989190610606565b60405180910390f35b6100bb60048036038101906100b691906104bb565b610286565b6040516100ca939291906105c8565b60405180910390f35b6100ed60048036038101906100e89190610686565b610368565b005b6060600080600080549050841061013b576040517f08c379a00000000000000000000000000000000000000000000000000000000081526004016101329061071f565b60405180910390fd5b60008085815481106101505761014f61073f565b5b90600052602060002090600302016040518060600160405290816000820180546101799061079d565b80601f01602080910402602001604051908101604052809291908181526020018280546101a59061079d565b80156101f25780601f106101c7576101008083540402835291602001916101f2565b820191906000526020600020905b8154815290600101906020018083116101d557829003601f168201915b505050505081526020016001820160009054906101000a900473ffffffffffffffffffffffffffffffffffffffff1673ffffffffffffffffffffffffffffffffffffffff1673ffffffffffffffffffffffffffffffffffffffff1681526020016002820154815250509050806000015181602001518260400151935093509350509193909250565b60008080549050905090565b6000818154811061029657600080fd5b90600052602060002090600302016000915090508060000180546102b99061079d565b80601f01602080910402602001604051908101604052809291908181526020018280546102e59061079d565b80156103325780601f1061030757610100808354040283529160200191610332565b820191906000526020600020905b81548152906001019060200180831161031557829003601f168201915b5050505050908060010160009054906101000a900473ffffffffffffffffffffffffffffffffffffffff16908060020154905083565b6000604051806060016040528084848080601f016020809104026020016040519081016040528093929190818152602001838380828437600081840152601f19601f8201169050808301925050505050505081526020013373ffffffffffffffffffffffffffffffffffffffff1681526020014281525090506000819080600181540180825580915050600190039060005260206000209060030201600090919091909150600082015181600001908161042291906109a9565b5060208201518160010160006101000a81548173ffffffffffffffffffffffffffffffffffffffff021916908373ffffffffffffffffffffffffffffffffffffffff160217905550604082015181600201555050505050565b600080fd5b600080fd5b6000819050919050565b61049881610485565b81146104a357600080fd5b50565b6000813590506104b58161048f565b92915050565b6000602082840312156104d1576104d061047b565b5b60006104df848285016104a6565b91505092915050565b600081519050919050565b600082825260208201905092915050565b60005b83811015610522578082015181840152602081019050610507565b60008484015250505050565b6000601f19601f8301169050919050565b600061054a826104e8565b61055481856104f3565b9350610564818560208601610504565b61056d8161052e565b840191505092915050565b600073ffffffffffffffffffffffffffffffffffffffff82169050919050565b60006105a382610578565b9050919050565b6105b381610598565b82525050565b6105c281610485565b82525050565b600060608201905081810360008301526105e2818661053f565b90506105f160208301856105aa565b6105fe60408301846105b9565b949350505050565b600060208201905061061b60008301846105b9565b92915050565b600080fd5b600080fd5b600080fd5b60008083601f84011261064657610645610621565b5b8235905067ffffffffffffffff81111561066357610662610626565b5b60208301915083600182028301111561067f5761067e61062b565b5b9250929050565b6000806020838503121561069d5761069c61047b565b5b600083013567ffffffffffffffff8111156106bb576106ba610480565b5b6106c785828601610630565b92509250509250929050565b7f496e76616c696420696e64657800000000000000000000000000000000000000600082015250565b6000610709600d836104f3565b9150610714826106d3565b602082019050919050565b60006020820190508181036000830152610738816106fc565b9050919050565b7f4e487b7100000000000000000000000000000000000000000000000000000000600052603260045260246000fd5b7f4e487b7100000000000000000000000000000000000000000000000000000000600052602260045260246000fd5b600060028204905060018216806107b557607f821691505b6020821081036107c8576107c761076e565b5b50919050565b7f4e487b7100000000000000000000000000000000000000000000000000000000600052604160045260246000fd5b60008190508160005260206000209050919050565b60006020601f8301049050919050565b600082821b905092915050565b60006008830261085f7fffffffffffffffffffffffffffffffffffffffffffffffffffffffffffffffff82610822565b6108698683610822565b95508019841693508086168417925050509392505050565b6000819050919050565b60006108a66108a161089c84610485565b610881565b610485565b9050919050565b6000819050919050565b6108c08361088b565b6108d46108cc826108ad565b84845461082f565b825550505050565b600090565b6108e96108dc565b6108f48184846108b7565b505050565b5b818110156109185761090d6000826108e1565b6001810190506108fa565b5050565b601f82111561095d5761092e816107fd565b61093784610812565b81016020851015610946578190505b61095a61095285610812565b8301826108f9565b50505b505050565b600082821c905092915050565b600061098060001984600802610962565b1980831691505092915050565b6000610999838361096f565b9150826002028217905092915050565b6109b2826104e8565b67ffffffffffffffff8111156109cb576109ca6107ce565b5b6109d5825461079d565b6109e082828561091c565b600060209050601f831160018114610a135760008415610a01578287015190505b610a0b858261098d565b865550610a73565b601f198416610a21866107fd565b60005b82811015610a4957848901518255600182019150602085019450602081019050610a24565b86831015610a665784890151610a62601f89168261096f565b8355505b6001600288020188555050505b50505050505056fea2646970667358221220af0500a0118fe3ec0a708f3c313a14f033d1a6396f5c6857bd6d29d9808d9b9d64736f6c63430008130033",
  "linkReferences": {},
  "deployedLinkReferences": {}
}